:0300000002016595
:0C016500787FE4F6D8FD7581200201AC23
:10032B004E6F7720537461727420424F4F4D0030E3
:10033B003030303030002A2A2A2A2A2A00506173A2
:10034B0073576F726C64204552524F5200506C655C
:10035B0061736520205265626F6F74005057443A89
:10036B00005468697320433420426F6F6D005057FF
:10037B00443A2A2A2A2A2A2A2A00070305050600B4
:01038B000869
:0905110007190A0A0A0A0A0A0A7B
:10000300E4FF12038CE4F50BF50CE4F5A07BFF7A17
:1000130003792B7D027F011204847F647E00120426
:100023003575A0FF7F0112038CE50CC4F8540FC88B
:1000330068FFE50BC454F048FEC374E89FFF7403E4
:100043009EFE1204C8050CE50C7002050BC3943C1C
:10005300E50B940040B4E4F50BF50CE4F5A07BFF4D
:100063007A03793A7D017F021204847F647E001251
:10007300043575A0FF7F0112038CC37418950CFF20
:10008300E4950BFE1204C8050CE50C7002050BC3C6
:100093009419E50B940040C3E4FF12038C7BFF7AB1
:1000A3000379417D017F02120484E4F50BF50CE42E
:1000B300F5A07F32FE12043575A0FF050CE50C7028
:0E00C30002050BC39405E50B940040E380FE9C
:1003C9007F0212038C7F647E001204357BFF7A035F
:1003D90079487D017F021204847F107E271204C8A8
:1003E9007BFF7A0379587D027F021204847F107E95
:0603F900271204C880CAAF
:1003FF00E4F50BE50BC39518502BE518F404240C0A
:10040F00250BFD7419250BF8E6FB7A007510017F9B
:10041F00021202C97BFF7A0379677D017F02120402
:05042F0084050B80CEE6
:0104340022A5
:1001F100E4F508F5091204DD7BFF7A03796C7D03D0
:100201007F011204847BFF7A0379797D017F0212D9
:050211000484E4F5186F
:10021600E4F50A1202648F08E50860F4D3940A50E4
:100226000DAF18051874192FF8A6081203FFE50874
:10023600B40BDDE4F50AE50AC3940750D3E50A904A
:10024600038593FF7419250AF8E6B5070A7F01129C
:0E025600038C12000380031203C9050A80D82E
:030538000201F1CC
:1004C800EF1FAC0670011E4C600A7D027CEFDCFE5B
:0404D800DDFC80ECDB
:0104DC0022FD
:1004F100C2A5C2A68F80D2A712051EC2A702051EE1
:10050100C2A5D2A68F80D2A712051EC2A702051EC0
:1004DD007F381204F17F0C1204F17F061204F17FB4
:0404ED00010204F113
:1004AA008F148D15E514B40105E515148009E514BA
:0E04BA00B4020AE515243F4480FF1204F1222B
:060484008B0D8A0E890FAA
:10048A001204AAE4F510AB0DAA0EA90F8510827505
:0F049A0083001200D1FF6007120501051080E7F3
:0104A9002230
:08045D008E148F158C168D170B
:100465007F017E00E4FBEBC39517E5166480F87405
:0E0475008098500AAC14AD151200FE0B80E802
:010483002256
:0402C9008A0E8B0FFF
:1002CD001204AAC3E50E648094804008850E128541
:1002DD000F1380107F2D120501C3E4950FF513E464
:1002ED00950EF512851011E511D39400402FE511EF
:1002FD0024FFFDE434FFFC7F0A7E0012045DAC1286
:10030D00AD13CFCDCFCECCCE1201107C007D0A1215
:0D031D000110ED2430FF120501151180CAFA
:01032A0022B0
:10038C00EF603424FE601A0470327F801204F1E4B2
:10039C00F50D7F20120501050DE50DC3941040F2FB
:1003AC00227FC01204F1E4F50D7F20120501050D2A
:0C03BC00E50DC3941040F27F011204F123
:0103C8002212
:0C051E007F017E8E7D02DDFEDEFADFF63E
:01052A0022AE
:040435008E0D8F0E8B
:10043900E4F50FF510C3E510950EE50F950D501372
:10044900B2A57F017E001204C80510E51070E6050B
:030459000F80E22F
:01045C00227D
:03051A00012000BD
:1002640075900FE590640F605912052BE590640FAB
:10027400604DAF90EF24F5601024FE6011146013FC
:1002840024077012752001800D75200280087520E6
:100294000380037520047590F0AF90EF2450600C38
:1002A40024E0600C24F0600C2470800E740480063A
:1002B40074088002740C2520F520E590B4F0FBAF9F
:0502C40020227F002252
:0C052B007F017E267D82DDFEDEFADFF619
:0105370022A1
:10017100020538E493A3F8E493A34003F68001F267
:1001810008DFF48029E493A3F85407240CC8C3338F
:10019100C4540F4420C8834004F456800146F6DF5E
:1001A100E4800B0102040810204080900511E47ED8
:1001B100019360BCA3FF543F30E509541FFEE49353
:1001C100A360010ECF54C025E060A840B8E493A31A
:1001D100FAE493A3F8E493A3C8C582C8CAC583CA45
:1001E100F0A3C8C582C8CAC583CADFE9DEE780BEFD
:01051D0000DD
:1000D100BB010CE58229F582E5833AF583E02250E4
:1000E10006E92582F8E622BBFE06E92582F8E2222E
:0D00F100E58229F582E5833AF583E4932248
:1000FE00EF8DF0A4A8F0CF8CF0A428CE8DF0A42E16
:02010E00FE22CF
:10011000BC000BBE0029EF8DF084FFADF022E4CCD3
:10012000F875F008EF2FFFEE33FEEC33FCEE9DEC9C
:10013000984005FCEE9DFE0FD5F0E9E4CEFD22EDE2
:10014000F8F5F0EE8420D21CFEADF075F008EF2F2C
:10015000FFED33FD4007985006D5F0F222C398FD1D
:050160000FD5F0EA22BA
:00000001FF
